:020000040000FA
:08000000803102288731F12F45
:100A9000FE0012001E00FE0B492D0034023400340B
:100AA00003340134013403340034023451018C1313
:100AB000033050019200FF3040019200FF3094005B
:100AC0007E01B801CE0138164E16BA12D01240017E
:100AD000921294127E015011D01140011411941100
:100AE0000800F401F501701C762D772D7B2D72081E
:100AF000F4077308F53D0130F235F30D890B7C2DB9
:100B00000130F136F00C890B812D70087104031D42
:100B10008A2D8B2D732D7508F1007408F0000800E4
:100B2000F400603041019E007408F2000130F2359B
:100B3000FF3E031D972D723501389D003430F200C1
:100B4000F230890BA12DF20BA12D41019D149D18AE
:100B5000AA2DAB2DA72D1C08F200F3017208F0009E
:100B60007308F1000800400126082802F600270853
:100B7000293BF70026082402F0002708253BF10056
:100B80002A082C02F2002B082D3BF3008531712539
:100B900085317108F9007008F8008531D825853154
:100BA00040012A087607A4002B08773DA50008001D
:100BB0004001A101F71FDD2DDE2DE52DF609F70916
:100BC000F60A0319F70AA101A10AF91FE82DE92D78
:100BD000F22DF809F909F80A0319F90A0130FA00A7
:100BE0007A08A106A201A301760877040319F92D5A
:100BF000FA2D292EA001A00A062E0130F635F70D98
:100C0000890BFE2D0130FA007A08A007F71F092E84
:100C10000A2EFD2D0130A235A30D890B0B2E77086E
:100C20007902031D152E76087802031C182E192E42
:100C30001E2E7608F8027708F93B22140130F736A9
:100C4000F60C890B1F2E0130A002031D282E292E21
:100C50000A2E210803192D2E2E2E332EA209A309A8
:100C6000A20A0319A30A2308F7002208F6000800C5
:100C7000043085319025863171084001AF0070083D
:100C8000AE002F08803AFB0080307B02031D4A2E05
:100C900024302E0203184D2E4E2E542E24304001A7
:100CA000AE000030AF00672E40012F08803AFB00F5
:100CB00080307B02031D5E2ED6302E02031C612E77
:100CC000622E672ED5304001AE000030AF004001EB
:100CD0002F08A5002E08A4002430A6000030A7008D
:100CE000D530A8000030A9002530AA000030AB00A4
:100CF000DA30AC000030AD008531B32586314001DB
:100D00002508AF002408AE002F08803AFB00803091
:100D10007B02031D8D2E92302E020318902E912EF1
:100D2000A42E40012F08803AFB0080307B02031D77
:100D30009B2E6D302E02031C9E2E9F2EA42E7F30E4
:100D40004001AE000030AF0008001430853190251E
:100D5000863171084001AF007008AE002F08803A5C
:100D6000FB0080307B02031DB72E1F302E020318BC
:100D7000BA2EBB2EC12E1F304001AE000030AF0096
:100D8000D42E40012F08803AFB0080307B02031DE7
:100D9000CB2ED1302E02031CCE2ECF2ED42ED0300F
:100DA0004001AE000030AF0040012F08A5002E0822
:100DB000A4001F30A6000030A700D030A8000030EB
:100DC000A9002530AA000030AB00DA30AC000030BA
:100DD000AD008531B325863140012508AF002408D8
:100DE000AE002F08803AFB0080307B02031DFA2EF4
:100DF00092302E020318FD2EFE2E112F40012F08D7
:100E0000803AFB0080307B02031D082F6D302E02DC
:100E1000031C0B2F0C2F112F7F304001AE00003030
:100E2000AF0008008531562587314001B801B9016E
:100E3000BA01BB013B08AF003A08AE008631A526D7
:100E4000873140012F08BB002E08BA003908AF00D7
:100E50003808AE0086313826873140012F08B900A6
:100E60002E08B8003908B1003808B0003B08B300BC
:100E70003A08B200BC01BD0198129A121A119A11D7
:100E8000640040013B08AF003A08AE008631A52659
:100E9000873140012F08BB002E08BA003908AF0087
:100EA0003808AE0086313826873140012F08B90056
:100EB0002E08B80030083802B4003108393BB500BC
:100EC00032083A02B60033083B3BB7003908B1009C
:100ED0003808B0003B08B3003A08B200E22F3508EA
:100EE000803AFC0080307C02031D782F01303402F0
:100EF000031C7B2F7C2F892F40013C08423E86003B
:100F000087010108FC007C08BC00FF30B407FF30FB
:100F1000B53D4001B51F8D2F8E2F9A2F3C083E3EC8
:100F2000860087010108FC007C08BC000130B40782
:100F30000030B53D3708803AFC0080307C02031D4C
:100F4000A32F01303602031CA62FA72FB42F400178
:100F50003D08423E860087010108FC007C08BD0078
:100F6000FF30B607FF30B73D4001B71FB82FB92F8C
:100F7000C52F3D083E3E860087010108FC007C0825
:100F8000BD000130B6070030B73D3D0C031C981280
:100F9000031898163D36FC00FC0EFC0D1A087C0662
:100FA000DF397C069A003C0C031C1A1103181A1531
:100FB0003C36FC00FC0DFC0DFC0D1A087C06F739D4
:100FC0007C069A0034083504031DE72FE82F6F2FA5
:100FD00036083704031DED2FEE2F6F2F402F803181
:100FE00002284E308400853085003E308600003077
:100FF0008700083085314825873140018731122F1D
:020000040001F9
:0A000E008C3F3E37ED07FF1FFF3F58
:00000001FF
